{
    "_format": "hh-sol-artifact-1",
    "contractName": "Hotel",
    "sourceName": "contracts/Hotel.sol",
    "abi": [
        {
            "inputs": [
                {
                    "internalType": "address payable",
                    "name": "ownerAddress",
                    "type": "address"
                }
            ],
            "stateMutability": "nonpayable",
            "type": "constructor"
        },
        {
            "inputs": [],
            "name": "checkIn",
            "outputs": [],
            "stateMutability": "payable",
            "type": "function"
        },
        {
            "inputs": [],
            "name": "checkOut",
            "outputs": [],
            "stateMutability": "nonpayable",
            "type": "function"
        },
        {
            "inputs": [],
            "name": "dailyRate",
            "outputs": [
                {
                    "internalType": "uint256",
                    "name": "",
                    "type": "uint256"
                }
            ],
            "stateMutability": "view",
            "type": "function"
        },
        {
            "inputs": [
                {
                    "internalType": "address",
                    "name": "",
                    "type": "address"
                }
            ],
            "name": "guestBalances",
            "outputs": [
                {
                    "internalType": "uint256",
                    "name": "",
                    "type": "uint256"
                }
            ],
            "stateMutability": "view",
            "type": "function"
        },
        {
            "inputs": [
                {
                    "internalType": "address",
                    "name": "",
                    "type": "address"
                }
            ],
            "name": "guestsCheckedIn",
            "outputs": [
                {
                    "internalType": "bool",
                    "name": "",
                    "type": "bool"
                }
            ],
            "stateMutability": "view",
            "type": "function"
        },
        {
            "inputs": [],
            "name": "owner",
            "outputs": [
                {
                    "internalType": "address payable",
                    "name": "",
                    "type": "address"
                }
            ],
            "stateMutability": "view",
            "type": "function"
        },
        {
            "inputs": [],
            "name": "totalCost",
            "outputs": [
                {
                    "internalType": "uint256",
                    "name": "",
                    "type": "uint256"
                }
            ],
            "stateMutability": "view",
            "type": "function"
        },
        {
            "inputs": [],
            "name": "totalDays",
            "outputs": [
                {
                    "internalType": "uint256",
                    "name": "",
                    "type": "uint256"
                }
            ],
            "stateMutability": "view",
            "type": "function"
        },
        {
            "inputs": [],
            "name": "withdraw",
            "outputs": [],
            "stateMutability": "nonpayable",
            "type": "function"
        }
    ],
    "bytecode": "0x60806040523480156200001157600080fd5b5060405162000cf938038062000cf9833981810160405281019062000037919062000117565b806000806101000a81548173ffffffffffffffffffffffffffffffffffffffff021916908373ffffffffffffffffffffffffffffffffffffffff160217905550670de0b6b3a76400006001819055506007600281905550600254600154620000a0919062000182565b60038190555050620001cd565b600080fd5b600073ffffffffffffffffffffffffffffffffffffffff82169050919050565b6000620000df82620000b2565b9050919050565b620000f181620000d2565b8114620000fd57600080fd5b50565b6000815190506200011181620000e6565b92915050565b60006020828403121562000130576200012f620000ad565b5b6000620001408482850162000100565b91505092915050565b6000819050919050565b7f4e487b7100000000000000000000000000000000000000000000000000000000600052601160045260246000fd5b60006200018f8262000149565b91506200019c8362000149565b9250828202620001ac8162000149565b91508282048414831517620001c657620001c562000153565b5b5092915050565b610b1c80620001dd6000396000f3fe6080604052600436106100865760003560e01c806374df19c31161005957806374df19c3146101025780638da5cb5b1461012d578063bc85e13a14610158578063c0ed15f814610195578063cba5751c146101d257610086565b8063078e36491461008b578063183ff085146100b65780633c5e6c97146100c05780633ccfd60b146100eb575b600080fd5b34801561009757600080fd5b506100a06101e9565b6040516100ad91906106f7565b60405180910390f35b6100be6101ef565b005b3480156100cc57600080fd5b506100d561035e565b6040516100e291906106f7565b60405180910390f35b3480156100f757600080fd5b50610100610364565b005b34801561010e57600080fd5b506101176104ac565b60405161012491906106f7565b60405180910390f35b34801561013957600080fd5b506101426104b2565b60405161014f9190610753565b60405180910390f35b34801561016457600080fd5b5061017f600480360381019061017a91906107b1565b6104d6565b60405161018c91906106f7565b60405180910390f35b3480156101a157600080fd5b506101bc60048036038101906101b791906107b1565b6104ee565b6040516101c991906107f9565b60405180910390f35b3480156101de57600080fd5b506101e761050e565b005b60025481565b600560003373ffffffffffffffffffffffffffffffffffffffff1673ffffffffffffffffffffffffffffffffffffffff16815260200190815260200160002060009054906101000a900460ff161561027c576040517f08c379a000000000000000000000000000000000000000000000000000000000815260040161027390610871565b60405180910390fd5b60035434146102c0576040517f08c379a00000000000000000000000000000000000000000000000000000000081526004016102b7906108dd565b60405180910390fd5b34600460003373ffffffffffffffffffffffffffffffffffffffff1673ffffffffffffffffffffffffffffffffffffffff168152602001908152602001600020819055506001600560003373ffffffffffffffffffffffffffffffffffffffff1673ffffffffffffffffffffffffffffffffffffffff16815260200190815260200160002060006101000a81548160ff021916908315150217905550565b60035481565b60008054906101000a900473ffffffffffffffffffffffffffffffffffffffff1673ffffffffffffffffffffffffffffffffffffffff163373ffffffffffffffffffffffffffffffffffffffff16146103f2576040517f08c379a00000000000000000000000000000000000000000000000000000000081526004016103e990610949565b60405180910390fd5b6003544711610436576040517f08c379a000000000000000000000000000000000000000000000000000000000815260040161042d906109b5565b60405180910390fd5b60008054906101000a900473ffffffffffffffffffffffffffffffffffffffff1673ffffffffffffffffffffffffffffffffffffffff166108fc6003544761047e9190610a04565b9081150290604051600060405180830381858888f193505050501580156104a9573d6000803e3d6000fd5b50565b60015481565b60008054906101000a900473ffffffffffffffffffffffffffffffffffffffff1681565b60046020528060005260406000206000915090505481565b60056020528060005260406000206000915054906101000a900460ff1681565b600560003373ffffffffffffffffffffffffffffffffffffffff1673ffffffffffffffffffffffffffffffffffffffff16815260200190815260200160002060009054906101000a900460ff1661059a576040517f08c379a000000000000000000000000000000000000000000000000000000000815260040161059190610a84565b60405180910390fd5b600060056001546105ab9190610aa4565b600460003373ffffffffffffffffffffffffffffffffffffffff1673ffffffffffffffffffffffffffffffffffffffff168152602001908152602001600020546105f59190610a04565b90506000600460003373ffffffffffffffffffffffffffffffffffffffff1673ffffffffffffffffffffffffffffffffffffffff168152602001908152602001600020819055506000600560003373ffffffffffffffffffffffffffffffffffffffff1673ffffffffffffffffffffffffffffffffffffffff16815260200190815260200160002060006101000a81548160ff0219169083151502179055503373ffffffffffffffffffffffffffffffffffffffff166108fc829081150290604051600060405180830381858888f193505050501580156106da573d6000803e3d6000fd5b5050565b6000819050919050565b6106f1816106de565b82525050565b600060208201905061070c60008301846106e8565b92915050565b600073ffffffffffffffffffffffffffffffffffffffff82169050919050565b600061073d82610712565b9050919050565b61074d81610732565b82525050565b60006020820190506107686000830184610744565b92915050565b600080fd5b600061077e82610712565b9050919050565b61078e81610773565b811461079957600080fd5b50565b6000813590506107ab81610785565b92915050565b6000602082840312156107c7576107c661076e565b5b60006107d58482850161079c565b91505092915050565b60008115159050919050565b6107f3816107de565b82525050565b600060208201905061080e60008301846107ea565b92915050565b600082825260208201905092915050565b7f416c726561647920636865636b656420696e0000000000000000000000000000600082015250565b600061085b601283610814565b915061086682610825565b602082019050919050565b6000602082019050818103600083015261088a8161084e565b9050919050565b7f496e636f7272656374207061796d656e7420616d6f756e740000000000000000600082015250565b60006108c7601883610814565b91506108d282610891565b602082019050919050565b600060208201905081810360008301526108f6816108ba565b9050919050565b7f4f6e6c79206f776e65722063616e207769746864726177000000000000000000600082015250565b6000610933601783610814565b915061093e826108fd565b602082019050919050565b6000602082019050818103600083015261096281610926565b9050919050565b7f4e6f7420656e6f7567682062616c616e63650000000000000000000000000000600082015250565b600061099f601283610814565b91506109aa82610969565b602082019050919050565b600060208201905081810360008301526109ce81610992565b9050919050565b7f4e487b7100000000000000000000000000000000000000000000000000000000600052601160045260246000fd5b6000610a0f826106de565b9150610a1a836106de565b9250828203905081811115610a3257610a316109d5565b5b92915050565b7f4e6f7420636865636b656420696e000000000000000000000000000000000000600082015250565b6000610a6e600e83610814565b9150610a7982610a38565b602082019050919050565b60006020820190508181036000830152610a9d81610a61565b9050919050565b6000610aaf826106de565b9150610aba836106de565b9250828202610ac8816106de565b91508282048414831517610adf57610ade6109d5565b5b509291505056fea26469706673582212205f6d3e8bf7c0d222a6e2b690e9b310d13c961e339a3b34eeab75111d2c04561664736f6c63430008120033",
    "linkReferences": {},
    "deployedLinkReferences": {}
}