{
  "_format": "hh-sol-artifact-1",
  "contractName": "LightControl",
  "sourceName": "contracts/LightControl.sol",
  "abi": [
    {
      "inputs": [],
      "name": "isOn",
      "outputs": [
        {
          "internalType": "bool",
          "name": "",
          "type": "bool"
        }
      ],
      "stateMutability": "view",
      "type": "function"
    },
    {
      "inputs": [],
      "name": "turnOff",
      "outputs": [],
      "stateMutability": "nonpayable",
      "type": "function"
    },
    {
      "inputs": [],
      "name": "turnOn",
      "outputs": [],
      "stateMutability": "nonpayable",
      "type": "function"
    }
  ],
  "bytecode": "0x608060405234801561001057600080fd5b5061011c806100206000396000f3fe6080604052348015600f57600080fd5b5060043610603c5760003560e01c8063175bbecf146041578063af10c81014605b578063ba33ed7d146063575b600080fd5b6047606b565b6040516052919060cd565b60405180910390f35b6061607c565b005b60696098565b005b60008054906101000a900460ff1681565b60008060006101000a81548160ff021916908315150217905550565b60016000806101000a81548160ff021916908315150217905550565b60008115159050919050565b60c78160b4565b82525050565b600060208201905060e0600083018460c0565b9291505056fea264697066735822122083ac0b1100286cf35d4c748020ad45905c0019bdb101e2fb215ef9be8e2b2d3f64736f6c63430008120033",
  "linkReferences": {},
  "deployedLinkReferences": {}
}