{
  "_format": "hh-sol-artifact-1",
  "contractName": "PaymentContract",
  "sourceName": "contracts/PaymentContract.sol",
  "abi": [
    {
      "inputs": [
        {
          "internalType": "address payable",
          "name": "receiver",
          "type": "address"
        }
      ],
      "name": "pay",
      "outputs": [],
      "stateMutability": "payable",
      "type": "function"
    }
  ],
  "bytecode": "0x608060405234801561001057600080fd5b50610235806100206000396000f3fe60806040526004361061001e5760003560e01c80630c11dedd14610023575b600080fd5b61003d6004803603810190610038919061012f565b61003f565b005b60003411610082576040517f08c379a0000000000000000000000000000000000000000000000000000000008152600401610079906101df565b60405180910390fd5b8073ffffffffffffffffffffffffffffffffffffffff166108fc349081150290604051600060405180830381858888f193505050501580156100c8573d6000803e3d6000fd5b5050565b600080fd5b600073ffffffffffffffffffffffffffffffffffffffff82169050919050565b60006100fc826100d1565b9050919050565b61010c816100f1565b811461011757600080fd5b50565b60008135905061012981610103565b92915050565b600060208284031215610145576101446100cc565b5b60006101538482850161011a565b91505092915050565b600082825260208201905092915050565b7f5061796d656e7420616d6f756e74206d7573742062652067726561746572207460008201527f68616e207a65726f2e0000000000000000000000000000000000000000000000602082015250565b60006101c960298361015c565b91506101d48261016d565b604082019050919050565b600060208201905081810360008301526101f8816101bc565b905091905056fea2646970667358221220dd190057382ad5297e5b0b8c90fd4cd5733a2aab3b1b4eaaeee8101a17c6393064736f6c63430008120033",
  "linkReferences": {},
  "deployedLinkReferences": {}
}